:020000040800F2
:1000000008B901205D030008DB550008814A00089B
:100010004955000841210008299D00080000000002
:10002000000000000000000000000000A502000821
:10003000C527000800000000F902000889830008B5
:10004000770300087703000877030008955F00082E
:100050007703000877030008C53400080D35000851
:100060007703000877030008770300087703000888
:100070007703000877030008770300087703000878
:100080007703000877030008770300087703000868
:100090007703000877030008770300087703000858
:1000A000770300087703000877030008898B0008AE
:1000B00077030008BD8C0008298E0008770300082C
:1000C0007703000877030008770300087703000828
:1000D000770300081D930008A59300087D9400088D
:1000E00077030008795A00087703000877030008AF
:1000F00077030008770300087703000877030008F8
:1001000077030008416300087703000877030008BD
:100110004992000877030008770300087703000876
:10012000552400088124000877030008770300089D
:1001300077030008770300087703000877030008B7
:1001400077030008770300087703000877030008A7
:100150007703000877030008770300085D9500081F
:100160007703000877030008770300087703000887
:100170007703000877030008770300087703000877
:10018000770300087703000800F002F800F072F827
:100190000AA090E8000C82448344AAF10107DA45E2
:1001A00001D100F067F8AFF2090EBAE80F0013F0C2
:1001B000010F18BFFB1A43F0010318475CDA030074
:1001C0007CDA03000A444FF0000C10F8013B13F0F6
:1001D000070408BF10F8014B1D1108BF10F8015BA0
:1001E000641E05D010F8016B641E01F8016BF9D193
:1001F00013F0080F1EBF10F8014BAD1C0C1B09D1EA
:100200006D1E58BF01F801CBFAD505E014F8016B5B
:1002100001F8016B6D1EF9D59142D6D370470000ED
:100220000023002400250026103A28BF78C1FBD8FF
:10023000520728BF30C148BF0B60704766290EF0D7
:10024000FD86642900F04081782900F079817329C6
:1002500000F05986002070471FB50EF0EAFE00F04E
:100260008BFE0400002000210EF056FEE0601FBD52
:1002700010B510BD00F0A8FF1146FFF7EDFF0BF021
:10028000ABFE00F0C6FF03B4FFF7F2FF03BC09F0BA
:1002900058FE000030BF72B6704762B6704780F3F8
:1002A000088870472A4B19680868B0E8F04F80F357
:1002B0000988BFF36F8F4FF0000080F311887047FB
:1002C0000000000006480068006880F3088862B6F5
:1002D00061B6BFF34F8FBFF36F8F00DF00BF00BF6A
:1002E00008ED00E0DFF80C00016841F470010160E6
:1002F000704700BF88ED00E0EFF30980BFF36F8F18
:10030000134B1A681EF0100F08BF20ED108A20E969
:10031000F04F106008B44FF0500080F31188BFF325
:100320004F8FBFF36F8F0DF0AFFE4FF0000080F3E3
:10033000118808BC19680868B0E8F04F1EF0100F6B
:1003400008BFB0EC108A80F30988BFF36F8F704745
:10035000CC030020EFF30580704700000948804778
:1003600009480047FEE7FEE7FEE7FEE7FEE7FEE797
:10037000FEE7FEE7FEE7FEE704480549054A064BAF
:1003800070470000998300088901000808B3012024
:1003900008B9012008B5012008B50120704710B543
:1003A0004C1084EA530404D54042C1F1000138BF27
:1003B000491E1B4204D55242C3F1000338BF5B1EE5
:1003C00000F094FA14F0804F04D04042C1F10001D3
:1003D00038BF491E14F0004F04D05242C3F100034D
:1003E00038BF5B1E10BD00000FB4044910B503AA4E
:1003F000029800F08DFD10BC5DF814FB9003002006
:100400000FB41CB5074B06AA7B44694600900598BB
:1004100000F04FFD0020694600F05EFD1CBC5DF859
:1004200014FB0000CD0A000070B504468569006821
:10043000C10601D5302600E02026C00707D070BDD8
:10044000D4E9012130469047206A401C20626D1E8D
:10045000F6D570BD70B5044685690078C00707D130
:1004600070BDD4E9012120209047206A401C206201
:100470006D1EF6D570BD70B50C460546012A05D037
:100480002878800600D5EA69002302E0012305E010
:100490005B1C934202D2E05C0028F9D1A869E618FF
:1004A000C01AA861286A184428622846FFF7BCFFD2
:1004B00004E0D5E9012114F8010B9047B442F8D3C8
:1004C0002846FFF7C7FF70BD2DE9F041064600241E
:1004D00010687529314616A510D0AFF300800028AA
:1004E00002DA404213A507E031688A0701D512A558
:1004F00002E0490704D511A5012401E0AFF3008013
:1005000000210A2206F1240709E0B0FBF2FCB0FB4F
:10051000F2F302FB1C00303078541846491C0028C6
:10052000F3D123462A463046BDE8F04100F055BAE3
:10053000000000002D0000002B0000002000000043
:1005400070B504460D4621461068AFF3008021883F
:10055000090502D50F4A7A4402E00E4A7A440E3267
:10056000002104F1240305E000F00F060009965D68
:100570005E54491C0028F7D120780023000704D5D9
:10058000702D02D009B1022311322046BDE870401F
:1005900000F023BA60D503002DE9F05F89460446D8
:1005A0004FF0000ADFF824B1FB44C0F820A0204639
:1005B000E168884700287DD0252806D0D4E90121AC
:1005C0009047206A401C2062F1E700255F462046E4
:1005D000E16888472028064607DB312E05D2B81986
:1005E00010F8200C08B10543F1E7A80701D525F064
:1005F0000405C4F81CA00027C4F818A02A2E09D0AE
:10060000304609F097FC38B304EB8708303EC8F851
:10061000186019E059F8041B204604EB8702916129
:10062000E1688847012F064618D1E069002820DAE2
:1006300025F020051DE0D8F8180000EB800006EB3F
:1006400040003038C8F818002046E1688847064660
:1006500009F070FC0028EED1012F0AD02E2E08D10F
:100660002046E16888477F1C0646022F45F020059A
:10067000C4DBA069002803DA404245F00105A0610F
:10068000E80701D025F01005A6B1A6F14100192810
:1006900002D8203645F400654A463146204625609A
:1006A0004D46FFF7CBFD60B1012807D0ED1D25F0C9
:1006B000070000E007E000F1080978E705F1040908
:1006C00075E730467AE7206ABDE8F09F36D503002B
:1006D00040EA010310B59B070FD1042A0DD310C8BF
:1006E00008C9121F9C42F8D020BA19BA884201D911
:1006F000012010BD4FF0FF3010BD1AB1D30703D059
:10070000521C07E0002010BD10F8013B11F8014B0E
:100710001B1B07D110F8013B11F8014B1B1B01D12A
:10072000921EF1D1184610BD10B5431C02E010F81E
:10073000011B71B18107FAD14FF0013202C88C1A46
:100740008C4314EAC211F9D0C01A0A0603D0C01EA5
:1007500010BDC01A10BD0A0401D0801E10BD0902D0
:10076000FCD0401E10BD032A40F2308010F0030C74
:1007700000F0158011F8013BBCF1020F624498BFF4
:1007800011F801CB00F8013B38BF11F8013BA2F191
:10079000040298BF00F801CB38BF00F8013B11F00C
:1007A000030300F02580083AC0F0088051F8043BAC
:1007B000083A51F804CBA0E80810F5E7121D5CBF19
:1007C00051F8043B40F8043BAFF30080D20724BF4C
:1007D00011F8013B11F801CB48BF11F8012B24BFE0
:1007E00000F8013B00F801CB48BF00F8012B70472F
:1007F00010B5203AC0F00B80B1E81850203AA0E8BC
:100800001850B1E81850A0E81850BFF4F5AF5FEAEF
:10081000027C24BFB1E81850A0E8185044BF18C9A2
:1008200018C0BDE810405FEA827C24BF51F8043B49
:1008300040F8043B08BF7047D20728BF31F8023B9D
:1008400048BF11F8012B28BF20F8023B48BF00F831
:10085000012B704702F0FF0343EA032242EA0242FF
:1008600000F06ABB4FF0013C50F8042B51F8043BF8
:100870009A4221D1A2EB0C03934313EACC1317D174
:1008800050F8042B51F8043B9A4215D1A2EB0C030B
:10089000934313EACC130BD150F8042B51F8043BCB
:1008A0009A4209D1A2EB0C03934313EACC13DBD099
:1008B0004FF00000704700BFD01A01BAB1FA81F1C1
:1008C00001F0180122FA01F0CB40C1F12001DBB2A6
:1008D000C0B2C01A2CFA01F3D11A914311EAC31124
:1008E000E6D17047704770477047704753EA020C73
:1008F00000F069802DE9F04B4FF00006002B1FBF80
:10090000B3FA83F503FA05F424FA05F65E4012BF44
:100910001643B2FA82F502FA05F4C5F120051EBFAE
:1009200022FA05FC44EA0C04203556EA044C4FEA4E
:10093000144418BF641C4FF000084FF000099042A7
:1009400071EB030C39D3002919BFB1FA81F701FA11
:1009500007F6B0FA80F700FA07F6C7F120071EBFC6
:1009600020FA07FC46EA0C062037B6FBF4FCA7EB9E
:100970000507103F07F01F0BCBF120060CFA0BFB0D
:100980002CFA06F644BFB3460026202FA4BF5E46CD
:100990004FF0000B5BEA060C08BF4FF0010B19EBA0
:1009A0000B09ABFB027C48EB0608C01B06FB02CC24
:1009B0000BFB03CC71EB0C01C1E70B460246414631
:1009C0004846BDE8F08B13B54FF000004FF0000132
:1009D000AFF30080BDE81C4070472DE9F0470D469D
:1009E00099469246044600F124080168880604D519
:1009F000E06921F01001216000E00120A84201DD42
:100A0000471B00E00027A1697A1902EB0900081AC8
:100A1000A0612078C00602D42046FFF705FD00261D
:100A200008E0D4E901211AF806009047206A401C2A
:100A3000761C20624E45F4DB2078C0060AD520469D
:100A4000FFF7F2FC06E0D4E9012130209047206A4C
:100A5000401C2062381EA7F10107F4DC07E0D4E94E
:100A6000012118F805009047206A401C2062281ECA
:100A7000A5F10105F3DC2046FFF7ECFC2078000629
:100A800002D50220BDE8F0870120FBE770472DE981
:100A9000FF4F0C461E464FF0FF378BB0D2E90001E6
:100AA000DDF860800A908A46C1F30A5505B93D46D3
:100AB000002108464FF00000BAF1000F00F440009A
:100AC00005DA00EB80004FF4400101EA50004FEAE4
:100AD0009059B9F1010F00DDB9460A9850EA4A0071
:100AE0000ED044F61050A5F2FF3545432F14B8F14F
:100AF000000F1ED07542291E1EDDC9F100021CE048
:100B0000B8F1010F4FF0000001D0302103E0F243B3
:100B100005E02154401CB042FBDB3046002200219E
:100B200021540B99C1F80880C1E900200FB0BDE83D
:100B3000F08FBD1B6D1CDEE74A4600DA694206A84D
:100B400000F0A4FA06AB93E8070003AB83E80700C4
:100B500050460A9900F063FB8DE80700A0F50050AD
:100B60001F3800900398002D09DD42F21F014A460C
:100B7000084403A90390684600F0C2FD08E0A0F510
:100B800000504A461F3803A90390684600F0CCFD88
:100B90008DE807000004000C03D04FF0FF3041083F
:100BA00000E01046B8F1000F03D000220092154675
:100BB0001EE0751E05D400F0E3F9303262556D1E5B
:100BC000F9D5B3460122084302D000227F1C04E07D
:100BD0002078302801D100227F1E002A099786D074
:100BE0001DE0112D07DA00F0CBF9303262556D1C93
:100BF00050EA0102F5D1084302D00098C8B10EE0D6
:100C00000021681E05E0235C625C63542254401E90
:100C1000491C8142F7DBAB46A81B401E099000200F
:100C200004F80B000B98099AC0F80880C0E9002B63
:100C30007CE711264FF0000859E72DE9F04F884670
:100C40000446D21D22F0070191B0D1E90001CDE99F
:100C50000A0109F057F902460B98C00F01D02D2068
:100C600007E02068810701D52B2002E0202101EA5E
:100C7000C000032A099001D0072A05DB034641463C
:100C8000204600F0C3F90BE12078800601D5E06929
:100C900000E00620B8F1650F814606D0B8F1660F76
:100CA00018D0B8F1670F70D131E00020B9F1110F01
:100CB000009001DB112301E009F101030AAA01A957
:100CC0000CA8FFF7E4FEDDE90C70002609F1010530
:100CD000834647E001204B4600904FF000470AAAA8
:100CE00001A90CA8FFF7D3FEDDE90DB00C995D4614
:100CF000002610B909F101000D18B9EB050003D465
:100D0000C0F1FF3609F10105A5EB09002BE0B9F1AF
:100D1000010F01DA4FF001090020B9F1110F009025
:100D2000484601DD112300E003460AAA01A90CA8E8
:100D3000FFF7ADFEDDE90C704D46002683462078B6
:100D400000070AD4AB4500DA5D4601A8012D04DD99
:100D5000411911F8011C302907D04F4502DA17F16B
:100D6000040F04DA012082460FE06D1EEEE7002F2B
:100D700002DCED1B3E4403E0781CA84200DD7D1C34
:100D8000B81B00F1010A4FF000472078000703D498
:100D9000AA4501DB4FF0FF3A0021B7F1004F0DF1FA
:100DA00043088DF8431024D002202B23002F01DAB2
:100DB0007F422D230A21021EA0F1010000DC5FB159
:100DC00097FBF1FC97FBF1F201FB1C7C17460CF141
:100DD000300C08F801CDEEE7A8F10100037021887E
:100DE000090501D5452100E06521A0F1010800F8C1
:100DF000011C09980FA9A1EB0807FF1D00B10120F4
:100E0000411901EBEA70A1693844081A401EA0613B
:100E10002078C00602D42046FFF706FB099828B1C7
:100E2000D4E901219047206A401C20622078C00646
:100E300022D52046FFF7F8FA1EE0002E04DBB3456A
:100E400002DD01A8805D00E03020D4E90121904757
:100E5000206A401C2062761CAAF101005FEA000AA9
:100E60000AD100F089F8C0680168405CD4E901212A
:100E70009047206A401C2062281EA5F10105DCDC99
:100E800007E0D4E9012118F8010B9047206A401CC3
:100E90002062381EA7F10107F3DC2046FFF7DAFADB
:100EA000032011B043E6000001694A1C0261087882
:100EB000704700B58FB0CDE901310021059105499A
:100EC0007944CDE9031011466846FFF765FB0FB082
:100ED00000BD0000E5FFFFFF0A6802F8010B0A6091
:100EE000704710B5436913B1AFF3008001E0FFF71D
:100EF000C2FA012010BD127800F124010A7000220C
:100F00004A700122EDE711684FF0FF32E9E7000077
:100F1000074B70B50D467B44FFF7CBFF04462846D0
:100F200000F022F910B14FF0FF3070BD204670BDC7
:100F300037AE00004FF000020429C0F0128010F01C
:100F4000030C00F01781CCF1040CBCF1020F18BFA8
:100F500000F8012BA8BF20F8022BA1EB0C0100F038
:100F600009B95FEAC17C24BF00F8012B00F8012B0E
:100F700048BF00F8012B704700487047C8B20120F5
:100F800030B5B0F10A024FEA900E71F100034EEA5B
:100F9000817EB0EB0E0061EB91014FEA101E4EEA2C
:100FA000017E10EB0E0041EB11114FEA102E4EEABC
:100FB000016E10EB0E0041EB11214FEA104E4EEA8C
:100FC000014E10EB0E0041EB1141401841F10001C0
:100FD0004FEAD00040EA41704FEAD10110EB8005A2
:100FE0004FEA810444EA907444EB01046D1944EB28
:100FF0000404521BA3414FF0000348BF0A3200D53E
:1010000030BD401C41F1000130BD00002DE9F04130
:101010001F46044603260168072A01F4006004DB2A
:1010200008B116A505E016A503E008B115A500E076
:1010300015A521F010002060A069C01EA0610FB1AD
:10104000401EA0612046FFF7EFF94FB1D4E901211E
:1010500038469047206A401C2062C01C206206E08F
:10106000206AFAE7D4E9012115F8010B9047761EB2
:10107000F8D22046FFF7EEF9BDE8F0814E414E0070
:101080006E616E00494E4600696E66002DE9F047BC
:10109000814616468AB0334878440DC88DE80D0065
:1010A00030487844801C03AC0DC884E80D0041F63C
:1010B0009B300844372190FBF1F290FBF1F5A5F14C
:1010C000800501FB12041B3C02D56442012000E0B4
:1010D0000020DFF890A080460027FA44AAF1BE0A5B
:1010E0000DE0E00709D03246684607EB47010AEBFE
:1010F000810100F019FB8DE8070064107F1C002CB3
:10110000EFD1184F7F44AC3F18E0E80714D007EB4D
:1011100004100DF1180A90E80E008AE80E00C0686D
:10112000F04201D198190890324606A903A800F0B0
:10113000FBFA03AB83E807006D10641C002DE4D1BB
:1011400032466946B8F1000F03A802D000F0D8FA81
:1011500001E000F0E9FAC9E90001C9F808200AB085
:10116000BDE8F087D4CA0300007B00F08000704720
:101170004FF0000200B5134694469646203922BF30
:10118000A0E80C50A0E80C50B1F12001BFF4F7AF7B
:10119000090728BFA0E80C5048BF0CC05DF804EB5D
:1011A000890028BF40F8042B08BF704748BF20F8CB
:1011B000022B11F0804F18BF00F8012B7047000080
:1011C00000487047A8B201207546FFF7F9FFAE4608
:1011D00005006946534620F00700854618B020B543
:1011E000FFF7CAF8BDE820404FF000064FF00007B7
:1011F0004FF000084FF0000B21F00701AC46ACE8BF
:10120000C009ACE8C009ACE8C009ACE8C0098D462B
:1012100070470446AFF300802046FFF734F85FEADA
:10122000400C08BF91F0000F4FEA8C234FEAC12217
:1012300043EA51514FEA1C5018BF00F5F0404FEA05
:10124000300018BF41F000415FEA6C5C00F029807B
:10125000BCF1FF3F08BF40F080407047130C06BF51
:1012600012044FF0100C4FF0000C130E04BF1202CA
:101270000CF1080C130F04BF12010CF1040C930FB6
:1012800004BF92000CF1020CD30F04BF52000CF10A
:10129000010C11464FF00002A0F11F00A0EB0C0062
:1012A000704711F0004F08BF704731F000413FF424
:1012B000D5AF0B0C06BF09044FF0100C4FF0000C1B
:1012C0000B0E04BF09020CF1080C0B0F04BF09013F
:1012D0000CF1040C8B0F04BF89000CF1020CCB0F36
:1012E00004BF49000CF1010CCCF12003A0EB0C0071
:1012F00022FA03F302FA0CF241EA030100F10100C1
:10130000704720F07F4C80EA030023F07F47ACEB6E
:10131000070303F57C5300F0004003F1FF032DE9C0
:1013200080494FEA154B09B44FEA144325EA0B4EA6
:1013300024EA03480FF2042606EB132749083E78F7
:101340005FEA320203FB0667C7F5000707FB06F6F4
:101350004FEA54374FEAD64606F1020607FB066C01
:10136000CCF1005C4FEA1C472CEA074C07FB06F463
:101370000CFB06F504EB15464FEA961634BF002029
:101380004FF000404FEAD13706FB07FC4FEA1C4CF8
:101390000CFB0BF7D21B03FB0CF761EB07010CFBFB
:1013A0000EF7B0EB074072EB17420CFB08F734BFA7
:1013B000A2EB0742B2EB074261EB17414FEA0C4444
:1013C0004FEA910706FB07FC4FEA1C4C0CFB0BF79E
:1013D000B0EBC74072EB573203FB0CF734BFA2EB04
:1013E000C742B2EBC74261EB57310CFB0EF7B0EBD3
:1013F000C70072EB57720CFB08F734BFA2EBC702B1
:10140000B2EBC70261EB5771039F4FEA816141EA7A
:10141000921104EBCC044FEAD1374FEA826206FB0B
:1014200007FC42EA90124FEA80604FEA1C4C0CFB2A
:101430000BF7D21B03FB0CF761EB07010CFB0EF75C
:10144000B0EB074072EB17420CFB08F734BFA2EB7E
:101450000742B2EB074261EB17414FEA8C554FEA66
:10146000910704EB9C2406FB07FC4FEA1C4C0CFB89
:101470000BF7B0EBC74072EB573203FB0CF734BFEE
:10148000A2EBC742B2EBC74261EB57310CFB0EF740
:10149000B0EBC70072EB57720CFB08F734BFA2EB3E
:1014A000C702B2EBC70261EB577115EB4C254FEA4F
:1014B000816141EA92114FEA82624FEAD13742EAF2
:1014C000901206FB07FC44F100044FEA80604FEAEB
:1014D0001C4C0CFB0BF7D21B03FB0CF761EB070159
:1014E0000CFB0EF7B0EB074072EB17420CFB08F752
:1014F00034BFA2EB0742B2EB074261EB174115EB99
:101500001C154FEA813141EA92414FEA823242EAA8
:1015100090424FEA80304FEA0C7644F1000448EAEA
:1015200003434EEA0B484FF0000EB2EB080C71EB90
:10153000030724BF624639464EEB0E0E4FF0000BF8
:101540000018524149414BEB0B0BB2EB080C71EB0D
:1015500003077BF1000B24BF624639464EEB0E0EAB
:101560004FF0000B0018524149414BEB0B0BB2EB13
:10157000080C71EB03077BF1000B24BF6246394670
:101580004EEB0E0E51EA020718BF46F0010616EBAD
:101590000E7655F1000254F1000103D5BDE8890132
:1015A000BDE80088BDE88901BDE80048B619524190
:1015B00041EB0101A3F10103704780807F7E7D7CB8
:1015C0007B7A7978777676757473727171706F6ED5
:1015D0006E6D6C6C6B6A6A69686867666665646480
:1015E000636362616160605F5F5E5E5D5D5C5C5B0A
:1015F0005B5A5A5959585857575656555555545479
:10160000535352525251515050504F4F4F4E4E4DD6
:101610004D4D4C4C4C4B4B4B4A4A4A494949484822
:101620004847474747464646454545444444444362
:1016300043434342424242414141002B26D477007A
:1016400021D01CB54FEA370703B44FF010004FF01C
:1016500010014FF000000FBCBDE810400BF1010B72
:10166000BBF1010F08BF5FEA170722BF12F10102A9
:1016700011F101014FF0004143F1000300F000407F
:1016800043EA00007047F9D35708DAE746EA06460E
:1016900013F1400F4FEA16461FDD13F1200FDFBF95
:1016A00016430A46002120335B42C8D0C3F120070D
:1016B00046EA064602FA07F74FEA164646EA0706E2
:1016C000C3F1200722FA03F201FA07F721FA03F126
:1016D0004FF0000342EA0702B1E746EA020646EA93
:1016E00006464FEA164646EA0106BCBF46EA0646EB
:1016F000360C4FF000034FF000024FF000019EE760
:101700002DE9C048934630B491E8380007C831EA63
:10171000400C48BF34EA430C03D5FFF7F2FDFFF756
:101720008CFFF0BCBDE800882DE9C048934630B47A
:1017300091E8380007C810F0804F08BF13F0804FC1
:1017400003D100F005F8FFF778FFF0BCBDE8008892
:1017500020F07F4780EA030023F07F4C07EB0C0367
:10176000A3F57C5300F00040A3F1FE0392F0000FBC
:1017700000F0B38095F0000F00F077802DE901496B
:101780004FEA11404FEA144621EA004800FB06FCEC
:1017900024EA064708FB06F607FB08F800FB07F7F4
:1017A00018EB06484CEB164C4FEA124B18EB074867
:1017B0004FEA15464CEB174022EA0B4E0BFB06FC9A
:1017C00025EA06470EFB06F607FB0EFE0BFB07F7A6
:1017D0001EEB064E4CEB164C4FF000061EEB074E70
:1017E0004CEB174B18EB0B0840F1000018EB0E0BFD
:1017F00058EB000840F100008F1A4FF000013CBF89
:10180000C943661B14BFB5EB040C00213CBFC943A0
:10181000F61B4FEA17444EEA8E0E27EA04454FEABC
:101820001C4704FB07622CEA074C05FB07F70CFB7F
:1018300005F604FB0CFC16EB074642EB174216EBD1
:101840000C4642EB1C421BEB060658EB02024141E0
:1018500046EA9E0601D5BDE80189B619524141EB21
:101860000101A3F10103BDE801894FEA14454FEAE4
:10187000114724EA054621EA074C05FB07F406FB5D
:1018800007F70CFB06F105FB0CFC11EB074144EBE1
:1018900017444FEA124711EB0C4144EB1C4422EA77
:1018A000074C05FB07F206FB07F70CFB06F605FBEA
:1018B0000CFC16EB074642EB174216EB0C4642EBCC
:1018C0001C456A1854F1000148BF7047B6195241CF
:1018D00041EB0101A3F10103704795F0000F37D0F0
:1018E0004FEA11424FEA144721EA024624EA074C24
:1018F00002FB07F106FB07F70CFB06F402FB0CFCEE
:1019000014EB074441EB17414FEA154714EB0C4425
:1019100041EB1C4125EA074C02FB07F506FB07F7E4
:101920000CFB06F602FB0CFC16EB074645EB1745D5
:1019300016EB0C4645EB1C42121951F1000148BF51
:101940007047B619524141EB0101A3F10103704701
:101950004FEA14454FEA114724EA054621EA074CAD
:1019600005FB07F106FB07F70CFB06F24FF000063C
:1019700005FB0CFC12EB074241EB174112EB0C424A
:1019800051EB1C4148BF7047921841EB0101A3F194
:101990000103704700B591B00121880503F04EFFA7
:1019A0000020029040480390404804900020059099
:1019B00005200690002007904FF4806008904000BA
:1019C000099080000A9000200B904FF400300C909A
:1019D00000200D9001200E9000200F90109002A981
:1019E000334800F09BFE1021314800F05FFD0122DA
:1019F00010212F4800F074FE01212D4800F070FDE9
:101A00004FF0806002902B4803902B4804900020F8
:101A1000059008200690002007904FF48060089001
:101A20004000099080000A9000200B904FF4003095
:101A30000C9000200D9001200E9000200F9010902F
:101A400002A91B48183000F069FE10211848183010
:101A500000F02CFD012210211548183000F040FE46
:101A600001211348183000F03BFD38208DF80400A8
:101A700000208DF8050001208DF806008DF8070084
:101A800001A803F0ABFD39208DF8040000208DF88B
:101A9000050001208DF806008DF8070001A803F06D
:101AA0009DFD11B000BD00004C200140200300202E
:101AB000106402404C2201402A03002021B18268B8
:101AC00042F00102826003E0826822F0010282603B
:101AD000704700000021084A1168084A1140D0E907
:101AE00000231A4383681A43C3681A431143044A04
:101AF000C2F804137047000004230140E030FCFFEB
:101B00000020014021B1826842F48072826003E0CB
:101B1000826822F480728260704721B1826842F448
:101B20000072826003E0826822F400728260704773
:101B300010B50121080203F0C1FE00214FF48070AE
:101B400003F0BCFE10BD000030B5024600200023AB
:101B50005068104C20400D790C6844EA052420435D
:101B6000506090680C4C2040D1E903542C438D68A0
:101B70002C434D7944EA450420439060D06A20F418
:101B800070000C7D641EE4B2234340EA0350D0622F
:101B900030BD0000FFFEFFFCFDF7FFC0F0B50446BE
:101BA0000D4600200021092D11DDE068A5F10A068F
:101BB00006EB4607072606FA07F18843A5F10A0651
:101BC00006EB460603FA06F10843E0600CE02069E4
:101BD00005EB4507072606FA07F1884305EB45069E
:101BE00003FA06F108432061072A0FDA606B561EDC
:101BF00006EB86071F2606FA07F18843561E06EBFA
:101C0000860605FA06F10843606322E00D2A0FDA22
:101C1000206BD61F06EB86071F2606FA07F18843BE
:101C2000D61F06EB860605FA06F10843206310E08E
:101C3000E06AA2F10D0606EB86071F2606FA07F1F9
:101C40008843A2F10D0606EB860605FA06F1084365
:101C5000E062F0BD816841F0804181607047000022
:101C600070B503461446002500220026640839E0BA
:101C7000087841280ADB0878462807DC08784138CC
:101C8000C2B21A48805C0007050E0CE008783028C4
:101C900009DB0878392806DC08783038C2B21448E5
:101CA000805C0007050E491C0878412809DB08788C
:101CB000462806DC08784138C2B20C48805C0543EF
:101CC0000BE00878302808DB0878392805DC08782C
:101CD0003038C2B20648805C0543491C03F8015BFA
:101CE000701CC6B2A642C3D3002070BD1E010020E6
:101CF000140100202B48008840F6C23148430013ED
:101D000097214843642190FBF1F02749A1F8540042
:101D10002448408840F6C231484300139721484385
:101D2000642190FBF1F081B21F48A0F8BC101D485F
:101D3000808840F6C231484300139721484364210C
:101D400090FBF1F081B21848A0F824111548C08822
:101D500040F6C2314843001397214843642190FB69
:101D6000F1F081B21048A0F88C110E48008940F6BD
:101D7000C23148430013AF214843642190FBF1F086
:101D80000949A1F856000846B0F85610A0F8BE1050
:101D9000B0F85610A0F82611B0F85610A0F88E1121
:101DA000704700002003002084050020244800889C
:101DB00040F6C231484300132249A1F8520020489E
:101DC000408840F6C231484301131E48A0F8BA10BB
:101DD0001B48808840F6C231484301131948A0F8D7
:101DE00022111748C08840F6C231484301131548F4
:101DF000A0F88A111248008940F6C2314843001306
:101E00001049A1F850000E48408940F6C2314843BD
:101E100001130C48A0F8B8100948808940F6C23177
:101E2000484301130748A0F820110548C08940F62F
:101E3000C231484301130348A0F8881170470000DD
:101E40002A0300208405002000B58DB0FFF770FE46
:101E50000121232003F0F2FC01214FF4A06003F0E4
:101E60001DFDF0200B9003208DF8300000208DF830
:101E700033000BA95E4802F0EBFA01200B900BA98E
:101E80005C4802F0E5FA0121080203F017FD002189
:101E90004FF4807003F012FD4FF4FF600B900320AD
:101EA0008DF8300000208DF833000BA9524802F065
:101EB000CFFA0121880203F001FD00214FF4806078
:101EC00003F0FCFC002007900A904FF400400990BA
:101ED0004000089007A8FFF7FDFD002001900120B9
:101EE0008DF8080000208DF809000390059005206A
:101EF0008DF8180001A94148FFF726FE07230122AB
:101F000004213E48FFF74AFE0723022205213B48F1
:101F1000FFF744FE0723032206213848FFF73EFE61
:101F20000723042219463548FFF738FE0723052208
:101F300008213248FFF732FE01213048FFF7EDFD5E
:101F400001212E48FFF7DEFD01212C48FFF7B6FDE9
:101F50000020019001208DF8080000208DF8090074
:101F60000390059008208DF8180001A92448FFF778
:101F7000EBFD0723012208212148FFF70FFE07236D
:101F8000022209211E48FFF709FE072303220E2122
:101F90001B48FFF703FE072304220F211848FFF711
:101FA000FDFD0723052204211548FFF7F7FD072350
:101FB000062205211248FFF7F1FD07231A460621E4
:101FC0000F48FFF7EBFD0723082219460C48FFF7DF
:101FD000E5FD01210A48FFF7A0FD01210848FFF7B0
:101FE00091FD01210648FFF769FD0DB000BD00001D
:101FF00000000240000402400014024000200140A2
:102000000022014010B5642291FBF2F230320270DE
:102010000A2291FBF2F20A2392FBF3F403FB14224F
:10202000303242700A2291FBF2F302FB131230327B
:1020300082700022C27010BD10B501F0EFFC3A486A
:102040000078D8B93948008810B9012038490860AB
:102050003648408818B901203549091D08603348C1
:10206000808818B901203249083108602F48C0889B
:1020700080B901202E490C3108600BE001202C4969
:1020800008602C49C1F884022949083108602949AF
:10209000C1F88C02642008F059FA00202449086035
:1020A0002449C1F884022249083108602149C1F855
:1020B0008C024FF47A7008F049FA4FF4966008F0F9
:1020C00045FA4FF47A7008F041FA01F0A7FC1420A9
:1020D00008F03CFA01F0A2FC142008F037FA01F0F5
:1020E0009DFC142008F032FA052001F07BFD14203D
:1020F00008F02CFA052001F075FDC82008F026FA3A
:10210000002001F0EDFD012001F0EAFD022001F0C8
:10211000E7FD032001F0E4FD0420074908600120E9
:102120000649087010BD000028000020140300209C
:10213000800242420000424224000020240100208C
:1021400000BFFEE7F0B502460B464FF6FF710025D3
:102150000026002413E012F8010B414000250AE09C
:1021600001F0010020B14AF2010080EA610100E0C3
:102170004910681CC5B2082DF2DB601CC4B29C4239
:10218000E9DB0E1246EA012080B2F0BD10B5002452
:1021900013E00B2001F026FD322008F0D7F90020D3
:1021A00001F09EFD012001F09BFD022001F098FD51
:1021B000032001F095FD601CC4B2022CE9DB002471
:1021C00038E0022001F00EFD322008F0BFF90020B7
:1021D00001F086FD012001F083FD022001F080FD69
:1021E000032001F07DFD1848C0781749897840EA3E
:1021F00001201549A1F85E00084690F86B1090F890
:102200006A0041EA00211048A0F8C61090F8D310E7
:1022100090F8D20041EA00210B48A0F82E1190F866
:102220003B1190F83A0141EA00210748A0F89611C5
:10223000601CC4B2032CC4DB0620044908600120E2
:102240000349087010BD0000840500202400002010
:102250002401002070B500254FF4803404E0802074
:1022600004F05AF800B103E02000A4F10104F6D113
:1022700000BF0CB9032070BD40F2FF5004F01CF801
:102280002846F8E770B5044605E01648056805F0ED
:10229000450000B100E0F8E700BF042004F03CF87E
:1022A00020B1042004F008F8032070BD012004F0E0
:1022B00033F820B1012003F0FFFF0120F5E70948C2
:1022C00024380068A04201D01020EEE740F2FF5011
:1022D00003F0F2FF03482038006808210840C0B22C
:1022E000E3E70000342C014070B500264FF4803540
:1022F00005E01148046804F0450000B103E028003F
:10230000A5F10105F5D100BF15B104F0040028B115
:102310000326042003F0D0FF304670BD012003F0F7
:10232000FBFF18B10126012003F0C6FF40F2FF5069
:1023300003F0C2FF3046F0E7342C014010B505E051
:102340000B48046804F0450000B100E0F8E700BF66
:10235000042003F0E1FF20B1042003F0ADFF0320CF
:1023600010BD40F2FF5003F0A7FF0020F8E7000087
:10237000342C01402DE9F04105460E464FF000088F
:1023800005E02048076807F0450000B100E0F8E7E5
:1023900000BF042003F0C0FF28B1042003F08CFF2D
:1023A0000320BDE8F081012003F0B6FF20B1012039
:1023B00003F082FF0120F4E7124824380068A842A5
:1023C00001D01020EDE740F2FF5003F075FF0D48FB
:1023D0002038046804F4604018B9200C308040466E
:1023E000DFE704F4005008B11320DAE704F480407A
:1023F00008B11020D5E704F4004008B10F20D0E761
:102400004046CEE7342C014070B500264FF48035AD
:1024100005E00F48046804F0450000B103E028001F
:10242000A5F10105F5D100BF15B104F0040028B1F4
:102430000326042003F040FF304670BD04F0400046
:1024400018B10026402003F037FF3046F5E70000C2
:10245000342C014010B50749074800F00FF940B18E
:102460000449054800F022F8FFF744FC0120034925
:10247000087010BD2080001010640240240100206C
:1024800010B50749074800F0F9F840B1044905487C
:1024900000F00CF8FFF78AFC01200349087010BD1A
:1024A0000088001028640240240100200246094BE5
:1024B0009A4201D2084801E00648103801F0005362
:1024C0001BB1064B0B40C36002E0044B0B40836022
:1024D0007047000010640240006002407D0F7D0FD5
:1024E00021B1026842F00102026003E0026822F0BA
:1024F0000102026070470000016821F001010160E3
:102500000021016041608160C16001612121416160
:102510004A49884204D13D21484A103A91608CE0F2
:1025200046491831884205D14FF47461434A103A44
:10253000916082E041493031884205D14FF47411F5
:102540003E4A103A916078E03C494831884205D1D2
:102550004FF07461394A103A91606EE0374960314A
:10256000884204D13649354A103AD16065E0334992
:102570007831884204D13349304A103AD1605CE066
:102580002E499031884204D12F492C4A103AD1600B
:1025900053E02A49A831884205D14FF03D51274ADE
:1025A000103AD16049E02949884204D13D21274AA7
:1025B000083A116041E025491831884205D14FF4AD
:1025C0007461224A083A116037E02049303188426C
:1025D00005D14FF474111D4A083A11602DE01B49D2
:1025E0004831884205D14FF07461184A083A1160A9
:1025F00023E016496031884204D11149134A121F61
:1026000011601AE011497831884204D10D490F4A0E
:10261000121F116011E00D499031884204D10A491E
:102620000A4A121F116008E00849A831884204D103
:102630004FF03D51054A121F116070471060024073
:102640003D000020400F002000003D2010640240AB
:1026500021B1026842F02002026003E0026822F029
:10266000200202607047014600200A6802F0010261
:102670000AB1012000E000207047000070B502465A
:10268000002000240025124EB24201D2114B01E07D
:102690000F4B103B104E0E4036B11E2606EAD124D9
:1026A000166806EA040502E0566906F0800501F0A6
:1026B00000560EB15C6800E01C68084E344004EA25
:1026C000010616B10DB1012000E0002070BD000030
:1026D00010640240006002403C0F3C0F7D0F7D0FF4
:1026E00010B501F080034BB122B1436943F0800380
:1026F000436103E0436923F08003436180290BD0E9
:102700002AB1036801F01E042343036004E0036858
:1027100001F01E04A343036010BD000010B50022A9
:102720000268134B1A40CC680B6823434C6923435F
:102730008C692343CC6923430C6A23434C6A2343AB
:102740008C6A23434C6B23438C6B23431A430260F4
:10275000426922F00702D1E90B3423431A43426154
:102760000B6943604B6883608B68C36010BD0000D9
:102770003F801CF010B50020084908700849088007
:10278000012008490870084908600021074806F040
:1027900066FC00F01DF901F055F910BD840300201E
:1027A0001800002024010020B482424200000140B1
:1027B00010B501F033F901F031F90AF05DFD07F0D1
:1027C0001BF810BD7047000010B541488168022019
:1027D00009F0C2FC40F6B83007F0B8FE002438E03B
:1027E000022001F0FFF9322007F0B0FE002001F0D6
:1027F00077FA012001F074FA022001F071FA032047
:1028000001F06EFA3348C0783249897840EA0120F5
:102810003049A1F85C00084690F86B1090F86A0007
:1028200041EA00212B48A0F8C41090F8D31090F88A
:10283000D20041EA00212748A0F82C1190F83B1162
:1028400090F83A0141EA00212248A0F89411601C56
:10285000C4B2032CC4DB1F48B0F85C0032381D49F9
:10286000A1F85C000846B0F8C400323881B21948BB
:10287000A0F8C410B0F82C01323881B21548A0F885
:102880002C11B0F89401323881B21248A0F894119A
:10289000042001F0A7F9322007F058FE042001F0CF
:1028A000A1F9322007F052FE002001F019FA0120B0
:1028B00001F016FA022001F013FA032001F010FAD9
:1028C00007200549086001200449087010BD000078
:1028D0003807002084050020240000202401002067
:1028E00010B54FF47840374908804FF4FC60364902
:1028F000088036480088401E82B210231946002006
:1029000002F0BEF931480088401E82B236231946D3
:10291000002002F0B5F92D480088401E82B25C23E9
:102920001946002002F0ACF928480088401E82B207
:1029300082231946002002F0A3F924480088401E93
:1029400082B2A8231946002002F09AF91F48008895
:10295000401E82B2CE231946002002F091F91B4896
:102960000088401E82B2F4231946002002F088F944
:1029700016480088401E82B24FF48D73194600201D
:1029800002F07EF91148438850221021104602F0CF
:1029900077F90E484388B4221021104602F070F9EE
:1029A0000A4843884FF48C721021104602F068F9EF
:1029B000064843884FF4BE721021104602F060F9B9
:1029C00010BD00008603002088030020200A00209C
:1029D0000EB54FF47840444908804FF4FC604349F9
:1029E000088008460088009041484088401E83B215
:1029F0003F480088401E82B21021002002F0ACF94E
:102A0000FFF76EFF002020213AA2CDE900210290BD
:102A100036480388344802881321022005F0F8FB69
:102A20000020202134A2CDE9002102902F48038804
:102A30002D4802883921022005F0EAFB00202021E0
:102A40002EA2CDE90021029028480388264802885A
:102A50005F21022005F0DCFB0120202128A2CDE926
:102A600000210290214803881F4802888521022006
:102A700005F0CEFB0120202123A2CDE90021029008
:102A80001A48038818480288AB21022005F0C0FBD1
:102A9000012020211EA2CDE90021029013480388C5
:102AA00011480288D121022005F0B2FB012020212B
:102AB00019A2CDE9002102900C4803880A48028837
:102AC000F721022005F0A4FB0120202114A2CDE96A
:102AD00000210290054803880348028840F21D1136
:102AE000022005F095FB0EBD860300208803002020
:102AF000200A002033563300545031005450320025
:102B000050524F4700000000566D617800000000F1
:102B1000566D696E00000000B6C2C2CA0000000017
:102B20004F4B2F4E47000000FEB504460D4616469B
:102B30001F4605F1250C1FFA8CF304F1630C1FFAF4
:102B40008CF205F1010C1FFA8CF104F1010C1FFA53
:102B50008CF0009602F000F900202021EA1CCDE95B
:102B60000071029091B204F1240290B23346024AFD
:102B7000128805F04DFBFEBD8603002010B5A0486D
:102B8000B0F8540040F69E4188420DDD9C48B0F8F4
:102B90005400B0F5526F07DA9A4B4FF4FC621021E3
:102BA000502000F047F906E0964B4FF6E0721021F6
:102BB000502000F03FF99248B0F8BC0040F69E412A
:102BC00088420DDD8E48B0F8BC00B0F5526F07DAD0
:102BD0008D4B4FF4FC621021B42000F02BF906E07D
:102BE000894B4FF6E0721021B42000F023F984489D
:102BF000B0F8240140F69E4188420EDD8048B0F8CE
:102C00002401B0F5526F08DA804B4FF4FC621021BA
:102C10004FF48C7000F00EF907E07C4B4FF6E07239
:102C200010214FF48C7000F005F97548B0F88C0154
:102C300040F69E4188420EDD7148B0F88C01B0F537
:102C4000526F08DA724B4FF4FC6210214FF4BE70E1
:102C500000F0F0F807E06E4B4FF6E07210214FF4F1
:102C6000BE7000F0E7F86648B0F8500040F61C412E
:102C7000884207DA674B4FF4FC623621502000F09F
:102C8000D9F806E0634B4FF6E0723621502000F091
:102C9000D1F85B48B0F8B80040F61C41884207DA2A
:102CA0005D4B4FF4FC623621B42000F0C3F806E01F
:102CB000594B4FF6E0723621B42000F0BBF8504873
:102CC000B0F8200140F61C41884208DA534B4FF41B
:102CD000FC6236214FF48C7000F0ACF807E04F4BEB
:102CE0004FF6E07236214FF48C7000F0A3F84448A0
:102CF000B0F8880140F61C41884208DA484B4FF48E
:102D0000FC6236214FF4BE7000F094F807E0444BAB
:102D10004FF6E07236214FF4BE7000F08BF8384861
:102D2000B0F85200C8280EDD3548B0F8520040F621
:102D3000AE31884207DA3B4B4FF4FC625C215020F5
:102D400000F078F806E0374B4FF6E0725C21502037
:102D500000F070F82A48B0F8BA00C8280EDD2848FC
:102D6000B0F8BA0040F6AE31884207DA2E4B4FF485
:102D7000FC625C21B42000F05DF806E02A4B4FF6BF
:102D8000E0725C21B42000F055F81D48B0F8220133
:102D9000C8280FDD1A48B0F8220140F6AE3188424B
:102DA00008DA224B4FF4FC625C214FF48C7000F087
:102DB00041F807E01D4B4FF6E0725C214FF48C7038
:102DC00000F038F80E48B0F88A01C8280FDD0C482A
:102DD000B0F88A0140F6AE31884208DA144B4FF45D
:102DE000FC625C214FF4BE7000F024F807E0104B49
:102DF0004FF6E0725C214FF4BE7000F01BF810BD7E
:102E0000840500204D0100205201002057010020C0
:102E10005C010020250100202A0100202F01002054
:102E200034010020390100203E0100204301002030
:102E300048010020FEB504460D4616461F4605F122
:102E4000250C1FFA8CF304F1630C1FFA8CF205F1C8
:102E5000010C1FFA8CF104F1010C1FFA8CF00096A2
:102E600001F07AFF00202021EA1CCDE900710290D8
:102E700091B204F1120290B23346024A128805F070
:102E8000C7F9FEBD8603002010B50446FB48007854
:102E9000012800D010BD0020F849087020680328E0
:102EA00002D1FFF795FDF5E706F068FFFFF766FE34
:102EB0002068042864D1F24890F86600012807D100
:102EC000F0A34FF4FC6282215020FFF72DFE0AE0B0
:102ED0000020EB4981F86700EBA34FF6E0728221F6
:102EE0005020FFF721FEE64890F8CE00012807D1D8
:102EF000E4A34FF4FC628221B420FFF715FE0AE040
:102F00000021DF4880F8CF10DFA34FF6E072822166
:102F1000B420FFF709FEDA4890F83601012808D1FD
:102F2000D8A34FF4FC6282214FF48C70FFF7FCFDB4
:102F30000BE00021D24880F83711D3A34FF6E0729E
:102F400082214FF48C70FFF7EFFDCD4890F89E0181
:102F5000012808D1CBA34FF4FC6282214FF4BE704C
:102F6000FFF7E2FDA4E20021C54880F89F11C6A347
:102F70004FF6E07282214FF4BE70FFF7D5FD97E265
:102F8000206806287BD1BE48B0F85E0040F68C2150
:102F900088420EDDBA48B0F85E0040F62231884221
:102FA00007DABA4B4FF4FC62A8215020FFF742FF2A
:102FB0000AE00020B24981F86700B44B4FF6E07296
:102FC000A8215020FFF736FFAD48B0F8C60040F604
:102FD0008C2188420EDDAA48B0F8C60040F62231A6
:102FE000884207DAAA4B4FF4FC62A821B420FFF70D
:102FF00021FF0AE00021A24880F8CF10A44B4FF631
:10300000E072A821B420FFF715FF9D48B0F82E010B
:1030100040F68C2188420FDD9948B0F82E0140F629
:103020002231884208DA9B4B4FF4FC62A8214FF40E
:103030008C70FFF7FFFE0BE00021914880F83711FC
:10304000944B4FF6E072A8214FF48C70FFF7F2FE1C
:103050008B48B0F8960140F68C21884210DD8848F4
:10306000B0F8960140F62231884209DA8A4B4FF4D3
:10307000FC62A8214FF4BE70FFF7DCFE18E20CE002
:1030800000217F4880F89F11834B4FF6E072A82102
:103090004FF4BE70FFF7CEFE0AE2206807287DD10C
:1030A0007748B0F85C00C8280DDD7548B0F85C00C2
:1030B000B0F57A7F07DA794B4FF4FC62CE215020CD
:1030C000FFF7B8FE0AE000206D4981F86700734BF6
:1030D0004FF6E072CE215020FFF7ACFE6848B0F802
:1030E000C400C8280DDD6648B0F8C400B0F57A7F8A
:1030F00007DA6B4B4FF4FC62CE21B420FFF79AFE47
:103100000AE000215E4880F8CF10654B4FF6E07270
:10311000CE21B420FFF78EFE5948B0F82C01C82804
:103120000EDD5748B0F82C01B0F57A7F08DA5D4B18
:103130004FF4FC62CE214FF48C70FFF77BFE0BE066
:1031400000214F4880F83711564B4FF6E072CE21E0
:103150004FF48C70FFF76EFE4948B0F89401C82810
:103160000FDD4748B0F89401B0F57A7F09DA4E4B8D
:103170004FF4FC62CE214FF4BE70FFF75BFE97E187
:103180000CE000213E4880F89F11474B4FF6E0725B
:10319000CE214FF4BE70FFF74DFE89E1206808286C
:1031A0006AD13748B0F86400342816DB3448B0F8E8
:1031B00064003A2811DC324890F85A0034280CDBBD
:1031C0002F4890F85A003A2807DC384B4FF4FC623D
:1031D000F4216020FFF72EFE0AE00020284981F844
:1031E0006700324B4FF6E072F4216020FFF722FEB9
:1031F0002348B0F8CC00342816DB2148B0F8CC00C6
:103200003A2811DC1E4890F8C20034280CDB1C4818
:1032100090F8C2003A2807DC254B4FF4FC62F421F9
:10322000C420FFF707FE0AE00021154880F8CF1000
:103230001F4B4FF6E072F421C420FFF7FBFD10484E
:10324000B0F83401342837DB0D48B0F834013A289F
:1032500032DC0B4890F82A0134282DDB084890F81E
:103260002A013A2828DC134B4FF4FC62F4214FF476
:103270009470FFF7DFFD2AE0B5E000002401002094
:10328000840500204F4B00004E47000061010020E4
:10329000660100206B0100207001002075010020F4
:1032A0007A0100207F010020840100208901002094
:1032B0008D0100209101002000217F4880F8371106
:1032C0007E4B4FF6E072F4216020FFF7B3FD7A48A1
:1032D000B0F89C01342817DB7748B0F89C013A28F5
:1032E00012DC754890F8920134280DDB724890F892
:1032F00092013A2808DC724B4FF4FC62F4214FF43F
:10330000C670FFF797FD0BE000216B4880F89F1116
:103310006B4B4FF6E072F4214FF4C670FFF78AFD55
:10332000654890F86700012809D1AFF2A8034FF46F
:10333000FC624FF48D715020FFF7F6FB08E0AFF20E
:10334000B8034FF6E0724FF48D715020FFF7ECFB9D
:10335000594890F8CF00012809D1AFF2D8034FF4B3
:10336000FC624FF48D71B420FFF7DEFB08E0AFF292
:10337000E8034FF6E0724FF48D71B420FFF7D4FBF1
:103380004D4890F83701012809D1AFF208134FF4E6
:10339000FC624FF48D71881EFFF7C6FB08E0AFF2A8
:1033A00018134FF6E0724FF48D71881EFFF7BCFBC7
:1033B000414890F89F0101280AD1AFF238134FF429
:1033C000FC624FF48D714FF4BE70FFF7ADFB6FE000
:1033D000AFF24C134FF6E0724FF48D714FF4BE70A4
:1033E000FFF7A2FB64E02068012861D1324890F821
:1033F0006700012809D1AFF274134FF4FC624FF457
:103400008D715020FFF790FB08E0AFF284134FF668
:10341000E0724FF48D715020FFF786FB264890F83C
:10342000CF00012809D1AFF2A4134FF4FC624FF48E
:103430008D71B420FFF778FB08E0AFF2B4134FF6BC
:10344000E0724FF48D71B420FFF76EFB1A4890F8CC
:103450003701012809D1AFF2D4134FF4FC624FF4C5
:103460008D71881EFFF760FB08E0AFF2E4134FF6A2
:10347000E0724FF48D71881EFFF756FB0E4890F8EE
:103480009F0101280AD1AFF204234FF4FC624FF4EC
:103490008D714FF4BE70FFF747FB09E0AFF21823C0
:1034A0004FF6E0724FF48D714FF4BE70FFF73CFBA6
:1034B000FFF716FA00BFEDE484050020910100201B
:1034C0009501002010B5012000F0A8F890B101206E
:1034D00000F09EF80848006860B9012007490860BC
:1034E0000021074805F0BBFD0020064908600420C4
:1034F0000549087010BD000000024142B4824242FA
:1035000000000140380700204E03002010B50220C3
:1035100000F084F888B10948006858B901200849CA
:1035200008600021074805F09AFD00200649086060
:1035300006490870022000F06BF810BD04024142F9
:10354000B482424200000140380700204E030020B0
:1035500000B585B00121042002F070F90121880333
:1035600002F09CF90320039000208DF81000032046
:103570008DF8110001208DF8130003A9234800F0F5
:1035800067FF0021022004F02FFB0121022004F03C
:103590002BFB0120019000208DF808000C208DF8F5
:1035A000090001208DF80A0001A800F043F802206C
:1035B000019000208DF808000C208DF809000120F2
:1035C0008DF80A0001A800F035F806208DF80000FB
:1035D00000208DF8010002208DF8020001208DF8F6
:1035E0000300684601F0FAFF07208DF80000002074
:1035F0008DF8010002208DF8020001208DF80300F3
:10360000684601F0EBFF05B000BD00000008024075
:103610000149086070470000143C01400146002049
:10362000034A12680A400AB1012000E000207047F6
:10363000143C0140002123498279002A3AD00A46ED
:10364000126803689A430B461A600A1D12680368E1
:103650009A430B1D1A60027911440A6803681A43E1
:103660000A60184A0832126803689A43154B0833F7
:103670001A601A1D126803689A43124B0C331A60C1
:103680004279102A0ED11A1F126803681A430D4B93
:1036900008331A601A1D126803681A43094B0C3369
:1036A0001A600DE00749427911440A6803681A4319
:1036B0000A6005E0027911440A6803689A430A60C7
:1036C00070470000003C014051B18200A2F1C042AD
:1036D000126842F001038200A2F1C042136009E0C7
:1036E0008200A2F1C0421268034B1A408300A3F18A
:1036F000C0431A6070470000FEFF0F00D0E90112BE
:103700001143C2681143026911434269114382693E
:103710001143C2691143026A1143426A1143826A2A
:103720001143C26A1143026B114302689200A2F175
:10373000C0421160816808290BD101688900A1F19C
:10374000C041096841F0400201688900A1F1C0410F
:103750000A60416B0968426B526841EA0211426B90
:10376000926841EA0221426B928941EA0241426B2E
:10377000128A41EA0251426B127D41EA0261426BB8
:10378000926911430268521C9200A2F1C04211607A
:10379000C16AB1F5804F1BD1816B0968826B526899
:1037A00041EA0211826B926841EA0221826B128A1D
:1037B00041EA0251826B127D41EA0261826B926999
:1037C000114302689200A2F1C042C2F8041107E05E
:1037D0006FF0704201688900A1F1C041C1F8042175
:1037E000704700002DE9F04705460E462C6800277B
:1037F000D5F80490BA46002014E004EB00110968E3
:10380000B1420ED104EB00114968494509D14FF08E
:10381000010A04EB00118F6804EB0011D1F80C8051
:1038200004E0401C074909688842E6DB00BFBAF1A2
:10383000000F05D007B1B8474146284600F006F80A
:10384000BDE8F087200000200160704741607047AC
:1038500010B588B004460121072001F0EFFF0121D7
:103860004FF4602002F00AF80121202002F016F83F
:1038700008220021624800F033FE0822012160483E
:1038800000F02EFE072202215D4800F029FE0722EB
:1038900003215B4800F024FE07220A21594800F06A
:1038A0001FFE07220B21574800F01AFE08220621AE
:1038B000554800F015FE08220721534800F010FE7D
:1038C0000F20069002208DF81C008DF81D000020AE
:1038D0008DF81E0001208DF81F0006A9484800F051
:1038E000B7FD4FF44060069006A9464800F0B0FDD1
:1038F000C020069006A9444800F0AAFD02940020CA
:10390000ADF80C00ADF80E00ADF81000ADF81400E5
:103910000C20ADF8120002A93C4805F0F5FE02A902
:103920003B4805F0F1FE02A93A4805F0EDFE02A978
:10393000394805F0E9FE0121344805F08AFE0121ED
:10394000334805F086FE0121324805F082FE012150
:10395000314805F07EFE012240F225512B4805F04A
:10396000AEFE012240F22551294805F0A8FE0122B1
:1039700040F22551274805F0A2FE012240F22551D0
:10398000254805F09CFE26208DF8040001208DF8C6
:1039900005008DF806008DF8070001A801F01EFE55
:1039A00027208DF8040001208DF8050002208DF8F5
:1039B000060001208DF8070001A801F00FFE342059
:1039C0008DF8040001208DF8050003208DF8060015
:1039D00001208DF8070001A801F000FE47208DF8B6
:1039E000040001208DF8050000208DF8060001205C
:1039F0008DF8070001A801F0F1FD08B010BD00002E
:103A00000000024000040240000802400044004060
:103A100000480040004C00400014014010B5062052
:103A200000F0E0F8C82006F091FD002000F058F901
:103A3000012000F055F9022000F052F9032000F0B7
:103A40004FF910BD10B50022634B1A700020BFE083
:103A500000210AE0002200EB800303EBC0035F4C6F
:103A600004EBC3035A544A1CD1B20229F2DB0021F1
:103A70000BE0002300EB800202EBC002574C04EB8A
:103A8000C202921C53544A1CD1B20229F1DB00211C
:103A90000BE0002300EB800202EBC0024F4C04EB72
:103AA000C202121D53544A1CD1B20429F1DB002179
:103AB0000BE0002300EB800202EBC002474C04EB5A
:103AC000C202083253544A1CD1B20429F1DB00214E
:103AD0000BE0002300EB800202EBC0023F4C04EB42
:103AE000C2020C3253544A1CD1B23229F1DB0021FC
:103AF0000BE0002300EB800202EBC002374C04EB2A
:103B0000C2023E3253544A1CD1B20629F1DB0022D4
:103B100000EB800303EBC003304C04EBC303A3F8BA
:103B20004C2000EB800303EBC00304EBC30383F8DA
:103B30004A2000EB800303EBC00304EBC303A3F8AC
:103B40004E2000EB800303EBC00304EBC303A3F898
:103B50005E2000EB800303EBC00304EBC303A3F878
:103B60005C2000EB800303EBC00304EBC303A3F86A
:103B7000642000EB800303EBC00304EBC303A3F852
:103B8000502000EB800303EBC00304EBC303A3F856
:103B9000522000EB800303EBC00304EBC303A3F844
:103BA000542000EB800303EBC00304EBC30383F852
:103BB0006620012200EB800303EBC00304EBC30388
:103BC00083F867200022064B23F81020421CD0B255
:103BD0000428FFF63DAF10BD0A0300208405002035
:103BE0001403002070B588B00646002409251C2265
:103BF000364901A8FCF7FCFD0C2E2DD2DFE806F0BB
:103C00002C060B1015191D222C2C2C270725012002
:103C10008DF8050021E0072502208DF805001CE045
:103C2000092503208DF8050017E0092500F0D2F9D9
:103C300013E00B2500F0A0FA0FE00B2506208DF80D
:103C400005000AE0092507208DF8050005E0072595
:103C50000B208DF8050000E000BF00BF042E01D04E
:103C6000052E01D108B070BDE81EC0B28DF8060067
:103C7000A81EC1B201A8FEF765FA0112A81E01AA8A
:103C80001154C1B201A8FEF75DFAC1B2681E01AAC3
:103C90001154002415E001A8015D0D4805F0A3FDB5
:103CA00001A8015D0B4805F09EFD01A8015D0A48D1
:103CB00005F099FD01A8015D084805F094FD601C20
:103CC000C4B2AC42E7DB00BFCCE7000040F0000824
:103CD000004C0040001401400044004000480040F7
:103CE00070B5044600BF00BF04EB840000EBC400C5
:103CF000B64901EBC000807BC01CC6B2B21ED1B277
:103D000004EB840202EBC402B04B03EBC20202F1EB
:103D10000C00FEF717FA04EB840101EBC401AB4A77
:103D200002EBC101A1F84C0004EB840000EBC400DD
:103D3000114601EBC0000C30711E425C04EB8400A4
:103D400000EBC400A14901EBC0000C30B11E405C87
:103D500002EB002004EB840101EBC4019B4A02EB5F
:103D6000C101B1F84C1088427DD104EB840000EB16
:103D7000C400114601EBC000007B0A28F4D104EB1B
:103D8000840000EBC40001EBC000407B0C286BD228
:103D9000DFE800F06A06294D6A6A98746A6A6AE286
:103DA000012004EB840101EBC401884A02EBC1014C
:103DB00081F86600002513E004EB840000EBC400EA
:103DC000824901EBC0000C30E91C405C04EB84012B
:103DD00001EBC4017D4A02EBC1014855681CC5B224
:103DE000022DE9DBDDE0012004EB840101EBC401DD
:103DF000764A02EBC10181F86600002514E004EB6D
:103E0000840000EBC400714901EBC0000C30E91CD8
:103E1000415C04EB840000EBC4006C4A02EBC00080
:103E2000801C4155681CC5B2022DE8DBB9E00120B9
:103E300004EB840101EBC401644A02EBC10181F887
:103E40006600002517E004EB840000EBC4005F4926
:103E500001EBC0000C30E91C415C04EB840000EB7A
:103E6000C4005A4A01E09DE09AE002EBC000001D48
:103E70004155681CC5B2042DE5DB92E0012004EB3E
:103E8000840101EBC401514A02EBC10181F86600D3
:103E9000002514E004EB840000EBC4004B4901EB67
:103EA000C0000C30E91C415C04EB840000EBC40052
:103EB000464A02EBC00008304155681CC5B2042DCB
:103EC000E8DB6EE0012004EB840101EBC4013F4A12
:103ED00002EBC10181F86600002514E004EB8400C8
:103EE00000EBC400394901EBC0000C30E91C415C17
:103EF00004EB840000EBC400344A02EBC0003E3007
:103F00004155681CC5B2062DE8DB04EB840000EBCC
:103F1000C4002E4901EBC00090F841002C4921F863
:103F20001400084630F814004FF6FF7101EA002033
:103F3000274921F81400084630F8140004EB8401E6
:103F400001EBC401214A02EBC10191F84210084380
:103F50001F4921F8140024E0012004EB840101EB47
:103F6000C4011A4A02EBC10181F8660004EB840027
:103F700000EBC400114601EBC000017C04EB84009F
:103F800000EBC40002EBC000C07B01EB002004EB9F
:103F9000840101EBC40102EBC101A1F8580000E06B
:103FA00000BF00BF002004EB840101EBC401074AFD
:103FB00002EBC101A1F84E0004EB840101EBC40146
:103FC00002EBC101A1F84C0070BD00008405002087
:103FD000140300203EB560A207CA8DE807006148BF
:103FE000B0F85E0000128DF803005E4890F85E00A5
:103FF0008DF804005B48B0F85C0000128DF80500F5
:10400000584890F85C008DF8060007216846FEF7D6
:1040100099F800128DF8070007216846FEF792F81C
:10402000C0B28DF80800002406E01DF804104E48C8
:1040300005F0D9FB601CC4B2092CF6DB4948B0F886
:10404000C60000128DF80300464890F8C6008DF8AF
:1040500004004448B0F8C40000128DF8050041483F
:1040600090F8C4008DF8060007216846FEF76AF84C
:1040700000128DF8070007216846FEF763F8C0B20A
:104080008DF80800002406E01DF80410374805F0FC
:10409000AAFB601CC4B2092CF6DB3248B0F82E0132
:1040A00000128DF803002F4890F82E018DF80400BF
:1040B0002C48B0F82C0100128DF80500294890F822
:1040C0002C018DF8060007216846FEF73BF8001228
:1040D0008DF8070007216846FEF734F8C0B28DF866
:1040E0000800002406E01DF80410214805F07BFBC1
:1040F000601CC4B2092CF6DB1A48B0F89601001215
:104100008DF80300174890F896018DF804001548C3
:10411000B0F8940100128DF80500124890F894014F
:104120008DF8060007216846FEF70CF800128DF89E
:10413000070007216846FEF705F8C0B28DF80800B1
:10414000002406E01DF804100A4805F04CFB601C32
:10415000C4B2092CF6DB3EBD0A04060000000000D4
:104160000000000084050020004C004000140140C5
:1041700000440040004800403EB548A207CA8DE810
:104180000700002585E005EB850000EBC5004649EA
:1041900001EBC00090F844008DF8030005EB8500AA
:1041A00000EBC50001EBC00090F845008DF804005D
:1041B00005EB850000EBC50001EBC00090F8460060
:1041C0008DF8050005EB850000EBC50001EBC00094
:1041D00090F847008DF8060005EB850000EBC50060
:1041E00001EBC00090F848008DF8070005EB850052
:1041F00000EBC50001EBC00090F849008DF8080005
:1042000009216846FDF79EFF00128DF8090009217B
:104210006846FDF797FFC0B28DF80A0035B1012D51
:1042200010D0022D1AD0032D30D123E0002406E057
:104230001DF804101D4805F0D6FA601CC4B20B2C02
:10424000F6DB23E0002406E01DF80410184805F012
:10425000CAFA601CC4B20B2CF6DB17E0002406E09F
:104260001DF80410134805F0BEFA601CC4B20B2CF4
:10427000F6DB0BE0002406E01DF804100E4805F004
:10428000B2FA601CC4B20B2CF6DB00BF00BF681C86
:10429000C5B2042DFFF677AF3EBD00000A05080049
:1042A000000000000000000084050020004C0040D9
:1042B0000014014000440040004800402DE9FC414A
:1042C00007460D460026002400200090019008209B
:1042D0005B49086010204860402088600020C8606A
:1042E0004FF480600861084602F062F81020FDF784
:1042F000C9FF044614B12046BDE8FC81514800883E
:1043000000044F4908603720486040208860002042
:10431000C8604FF480600861084602F049F8372011
:10432000FDF7B0FF04460CB12046E5E74FF0FF3043
:104330004549086008204860302088600220C86035
:104340000020086101204861084601F0CBFF0020F1
:104350003B49086033204860402088600020C860E6
:104360004FF480600861084602F022F83320FDF720
:1043700089FF04460CB12046BEE70CE04FF4001064
:1043800001F0CAFF38B1314800684DF82600761CAC
:10439000022E00D307E02D484C38006840F22A6115
:1043A00008400028EAD000BF082001F0B5FF20B186
:1043B000082001F081FF04209EE7022001F0ACFFFD
:1043C00020B1022001F078FF022095E7202001F0C3
:1043D000A3FF20B1202001F06FFF06208CE74FF4EF
:1043E000007001F099FF28B14FF4007001F064FFF4
:1043F000072081E740F2FF5001F05EFF00980006C1
:10440000009901F47F4140EA0120009901F47F0105
:1044100040EA1120009940EA1160686001980006A6
:10442000019901F47F4140EA0120019901F47F01E3
:1044300040EA1120019940EA1160286020465BE7BC
:1044400078070020780300208C070020802C014092
:10445000F0B50A4600210023002400BF3DE00125FD
:1044600005FA01F3156805EA03049C4234D1056896
:104470004F000326BE40B543056015794E00B54098
:104480000668354305601579012D02D01579022D96
:1044900016D185684F000326BE40B5438560557927
:1044A0004E00B540866835438560456801268E40DC
:1044B000B5434560456896798E40B6B23543456050
:1044C000C5684F000326BE40B543C560D5794E0090
:1044D000B540C6683543C560491C1029BFD3F0BD3F
:1044E000F0B5002300244D07ED0E02FA05F3CE10BF
:1044F00000F1200555F826504E07F70E0F26BE4056
:10450000B543CF1000F1200646F82750CE1000F139
:10451000200555F8265045EA0304CE1000F1200589
:1045200045F82640F0BD0246002013690B400BB150
:10453000012000E000207047418370472DE9FC5FB7
:104540000546884691469A46DDF830B000950E2023
:10455000019000245FE004EB0410374911F81000CB
:104560009BF80010884253D104EB0410324901EB50
:10457000400040789BF80110884249D108F10F00B3
:1045800083B205F10F0082B24146284600F092FE48
:1045900000263BE0002734E00D9890B904EB0410AE
:1045A000254901EB4000801C805D80213941084095
:1045B00018B1484600F0CAFB21E0504600F0C6FBA7
:1045C0001DE01E48A0F8009004EB04101A4901EB0E
:1045D0004000801C805D80213941084018B141466F
:1045E000284600F0A5FB681C85B20098281A102800
:1045F00005D1009D08F101001FFA80F803E0781C46
:10460000C7B2082FC8DB00BF701CC6B2202EC1DBAA
:1046100000BF601C84B2019884429CDB084840883B
:10462000401E83B206480088401E82B20021084620
:1046300000F040FEBDE8FC9F7C1B010886030020C3
:10464000200A00202DE9FC5F0546884691469A46DF
:10465000DDF830B000950E200190002467E004EBF7
:10466000840000EB44103A4911F810009BF8001048
:10467000884259D104EB840000EB4410344901EB2B
:10468000400040789BF8011088424DD108F1170096
:1046900083B205F1170082B24146284600F00AFEB7
:1046A00000263FE0002738E00D98A0B904EB840015
:1046B00000EB4410264901EB4000801C805D802106
:1046C0003941084018B1484600F040FB23E050460D
:1046D00000F03CFB1FE01F48A0F8009004EB8400B2
:1046E00000EB44101A4901EB4000801C805D8021E2
:1046F0003941084018B14146284600F019FB681CB2
:1047000085B20098281A182805D1009D08F10100EB
:104710001FFA80F803E0781CC7B2082FC4DB00BF83
:10472000701CC6B2482EBDDB00BF601C84B201986D
:10473000844294DB08484088401E83B206480088C3
:10474000401E82B20021084600F0B4FDBDE8FC9F87
:10475000581D010886030020200A00202DE9FC5F77
:104760000546884691469A46DDF830B000951820F7
:10477000019000245FE004EB8410374911F8100029
:104780009BF80010884253D104EB8410324901EBAE
:10479000400040789BF80110884249D108F11F0081
:1047A00083B205F11F0082B24146284600F082FD27
:1047B00000263BE0002734E00D9890B904EB84100C
:1047C000254901EB4000801C805D80213941084073
:1047D00018B1484600F0BAFA21E0504600F0B6FAA7
:1047E0001DE01E48A0F8009004EB84101A4901EB6C
:1047F0004000801C805D80213941084018B141464D
:10480000284600F095FA681C85B20098281A2028DE
:1048100005D1009D08F101001FFA80F803E0781C23
:10482000C7B2082FC8DB00BF701CC6B2802EC1DB28
:1048300000BF601C84B2019884429CDB0848408819
:10484000401E83B206480088401E82B200210846FE
:1048500000F030FDBDE8FC9F6421010886030020C4
:10486000200A00201CB50121302000F0E7FF0F20B6
:10487000009001208DF8040000208DF80600022031
:104880008DF8050001208DF8070069460E48FFF7F6
:10489000DFFD48F20400009069460C48FFF7D8FDA0
:1048A0004FF400410948FFF747FE0020084908601F
:1048B0000849C1F88402064908310860091D0860EA
:1048C0000120054908601CBD001002400014024090
:1048D00080024242000042428882424210B5624851
:1048E000C168032007F038FC0121604804F0B7FBE1
:1048F0004FF47A6005F02AFE002429E04FF4967008
:1049000005F024FE0120FFF76DF9322005F01EFEB0
:104910000020FFF7E5F90120FFF7E2F90220FFF799
:10492000DFF90320FFF7DCF9514800785049A1F87E
:104930006400084690F86810A0F8CC1090F8D010E9
:10494000A0F8341190F83811A0F89C11601CC4B282
:10495000052CD3DB01F0C0FB002438E00220FFF778
:1049600041F9322005F0F2FD0020FFF7B9F90120EE
:10497000FFF7B6F90220FFF7B3F90320FFF7B0F90C
:104980003B48C0783A49897840EA01203849A1F883
:104990006000084690F86B1090F86A0041EA002128
:1049A0003348A0F8C81090F8D31090F8D20041EA2C
:1049B00000212F48A0F8301190F83B1190F83A01EF
:1049C00041EA00212A48A0F89811601CC4B2022CC8
:1049D000C4DB002414E02648B0F850002449A1F8B4
:1049E00062000846B0F8B810A0F8CA10B0F820115C
:1049F000A0F83211B0F88811A0F89A11601CC4B266
:104A0000022CE8DB002410E01A4830F814000A21D8
:104A100090FBF1F004EB840101EBC401144A02EBBA
:104A2000C10181F85A00601CC4B2042CECDB0024E4
:104A30000BE000210E48001D01556830015568301B
:104A4000015568300155601CC4B2022CF1DB002115
:104A5000064804F004FBFDF7ABFE08200649086099
:104A600001200649087010BD3807002000080040EA
:104A70008405002050030020240000202401002091
:104A800002E002A0FBF7B0FCFBE700004747000094
:104A90002DE9FF4F81B00D4614461E4606222946D9
:104AA000019805F050FA074606222146019805F0C4
:104AB0004AFA804606223146019805F044FA8146BA
:104AC00006222146284605F03EFA82460622314655
:104AD000284605F038FA834606223146204605F07E
:104AE00032FA009087B1B8F1000F0DD0B9F1000F84
:104AF0000AD0BAF1000F07D0BBF1000F04D0009824
:104B000010B10A48007830B9002009490870012026
:104B100005B0BDE8F08F05480078012803D10449AD
:104B200008700020F4E70120F2E700000A030020EB
:104B30000B0300207047000000B502460D20044919
:104B400008600020506003491046FEF77DFE00BD5E
:104B5000200000202C0000201CB5044600200190FD
:104B60000090224800880004214908600D20486018
:104B7000402088600020C8604FF4806008610846CB
:104B800001F016FC1B480068009002E0194800681C
:104B90000090009800F045000028F7D0012001F0B7
:104BA000BBFB20B1012001F087FB01201CBD0420CC
:104BB00001F0B2FB20B1042001F07EFB0320F5E7F9
:104BC0000C48243800680D2801D01020EEE740F290
:104BD000FF5001F071FB07482038006801900198F0
:104BE000C0F3432020700020E0E70000780300209D
:104BF00078070020342C01401CB501214C2000F026
:104C00001DFEF820009000208DF8040003208DF890
:104C1000050001208DF8070069460848FFF718FCD9
:104C20000C20009069460648FFF712FC4FF4005034
:104C3000009069460348FFF70BFC1CBD00180240BA
:104C400000080240000C024030B5044600250A4826
:104C50004088401E83B208480088401E82B200216E
:104C6000084600F027FB00BF02E0044804806D1CEA
:104C7000B5F5163FF9D330BD200A00200020006CA6
:104C80002DE9FF4F85B081468A46002004900390AD
:104C90000798A0EB09050898A0EB0A06CDF8089044
:104CA000CDF804A0002D01DD012705E00DB9002796
:104CB00002E04FF0FF376D42002E02DD4FF0010899
:104CC00006E016B94FF0000802E04FF0FF387642D8
:104CD000B54201DD2C4600E034464FF0000B21E0E8
:104CE000019A91B2029A90B200F022F804982844F6
:104CF00004900398304403900498A04205DD049882
:104D0000001B04900298384402900398A04205DDED
:104D10000398001B03900198404401900BF101009F
:104D20001FFA80FB601C8345DADD09B0BDE8F08F17
:104D300030B504460D462946204600F077FA024871
:104D4000008800F09BFB30BD8603002000B50246C2
:104D5000104600F093FB00BD2DE9F84F06460F46C4
:104D600014461D46DDF82890A01B401C1FFA80FA4F
:104D7000E81B401C1FFA80FB0BFB0AF00090681E2A
:104D800083B2601E82B23946304600F093FA4FF08B
:104D9000000804E00A48A0F8009008F10108009813
:104DA0008045F7D307484088401E83B205480088F5
:104DB000401E82B20021084600F07CFABDE8F88F60
:104DC0000020006C200A002000B59FB001217A204D
:104DD00000F034FD0121084600F040FD02201D9046
:104DE00001208DF8780000208DF87A0002208DF8DF
:104DF000790001208DF87B001DA97648FFF728FB7C
:104E00004CF233701D9002208DF8780000208DF850
:104E10007A0003208DF8790001208DF87B001DA910
:104E20006D48FFF715FB4FF680701D9002208DF83E
:104E3000780000208DF87A0003208DF87900012099
:104E40008DF87B001DA96548FFF702FB04201D902B
:104E500002208DF8780000208DF87A0003208DF86C
:104E6000790001208DF87B001DA95D48FFF7F0FA5D
:104E70004FF480501D9002208DF8780000208DF8AE
:104E80007A0003208DF8790001208DF87B001DA9A0
:104E90005348FFF7DDFA0C2200214F48FFF720FBB3
:104EA0000C2201214C48FFF71BFB0C2204214A482D
:104EB000FFF716FB0C2205214748FFF711FB0C22D8
:104EC00008214548FFF70CFB0C2209214248FFF757
:104ED00007FB0C220A214048FFF702FB0C220E219F
:104EE0003D48FFF7FDFA0C220F213B48FFF7F8FA87
:104EF0000C2207213948FFF7F3FA0C220821374822
:104F0000FFF7EEFA0C2209213448FFF7E9FA0C22E8
:104F10000A213248FFF7E4FA0C220B212F48FFF751
:104F2000DFFA0C2211462D48FFF7DAFA0C220D2188
:104F30002A48FFF7D5FA0C220E212848FFF7D0FAAD
:104F40000C220F212548FFF7CBFA0C22022124481E
:104F5000FFF7C6FA0C2211462148FFF7C1FA0F20CD
:104F60000790002008903C20099000200A900B90A8
:104F70000C900D90092000900020019008200290D4
:104F80000020039004900590069006200E900020CB
:104F90000F901090102011900020129014901390F8
:104FA000159016904FF480501790002018904FF4F1
:104FB0008040199000201A9007A81B90CDF870D05F
:104FC0000EA8FEF79BFB01210620FEF77DFB1FB01C
:104FD00000BD000000040240000C0240001002402E
:104FE0000018024010B5FFF7EFFEF92000F04CFA70
:104FF000002000F043FA082000F040FAC02000F042
:1050000043FA192000F03AFA1A2000F037FAC120CA
:1050100000F03AFA452000F031FA002000F02EFAB4
:10502000C22000F031FA332000F028FAC52000F049
:105030002BFA002000F022FA282000F01FFAB120FD
:1050400000F022FAA02000F019FA112000F016FA60
:10505000B42000F019FA022000F010FAB62000F097
:1050600013FA002000F00AFA422000F007FA3B2071
:1050700000F004FAB72000F007FA072000F0FEF96C
:10508000E02000F001FA1F2000F0F8F9252000F0E0
:10509000F5F9222000F0F2F90B2000F0EFF90620DC
:1050A00000F0ECF90A2000F0E9F94E2000F0E6F9F2
:1050B000C62000F0E3F9392000F0E0F9002000F00C
:1050C000DDF9002000F0DAF9002000F0D7F9002027
:1050D00000F0D4F9002000F0D1F9002000F0CEF962
:1050E000E12000F0D1F91F2000F0C8F93F2000F0C6
:1050F000C5F93F2000F0C2F90F2000F0BFF91F20D2
:1051000000F0BCF90F2000F0B9F9462000F0B6F924
:10511000492000F0B3F9312000F0B0F9052000F08B
:10512000ADF9092000F0AAF9032000F0A7F91C202E
:1051300000F0A4F91A2000F0A1F9002000F09EF977
:10514000F12000F0A1F9362000F098F9042000F0D9
:1051500095F9002000F092F93C2000F08FF90F2023
:1051600000F08CF90F2000F089F9A42000F086F9F6
:10517000022000F083F9F22000F086F9182000F0F8
:105180007DF9A32000F07AF9122000F077F90220CF
:1051900000F074F9322000F071F9122000F06EF97D
:1051A000FF2000F06BF9322000F068F9002000F0D9
:1051B00065F9F42000F068F9402000F05FF9002064
:1051C00000F05CF9082000F059F9912000F056F940
:1051D000042000F053F9F82000F056F9212000F0E7
:1051E0004DF9042000F04AF9362000F04DF948202E
:1051F00000F044F93A2000F047F9552000F03EF95C
:10520000112000F041F9782005F0A0F9292000F0E4
:105210003BF900F037F80120034908604FF4FC60C7
:10522000FFF712FD10BD00008482404200B5024627
:105230000B461349488900F027F9101200F01EF9B7
:10524000D0B200F01BF9511C081200F017F9511CE4
:1052500088B200F013F90A49888900F015F918128C
:1052600000F00CF9D8B200F009F9591C081200F04E
:1052700005F9591C88B200F001F900F00BF900BDE6
:10528000200A002000B52A20094948812B20888166
:105290002C200881012088714FF4F07008804FF4B1
:1052A000A07048806821362000F0FCF800BD0000A6
:1052B000200A002030B504460D461149488900F007
:1052C000E3F8201200F0DAF8E0B200F0D7F810129C
:1052D00000F0D4F8D0B200F0D1F80949888900F084
:1052E000D3F8281200F0CAF8E8B200F0C7F8181294
:1052F00000F0C4F8D8B200F0C1F800F0CBF830BD2F
:10530000200A00202DE9FF4F83B081468A4693464C
:10531000DDE91064534800880290A6F12000C6B26F
:1053200004EBD47009EB6000401E82B20AEB04006B
:10533000401E83B2514648460194FFF7BBFF1298C6
:1053400000283CD1002537E00C2C07D106EB4600A5
:10535000454901EB800010F8058016E0102C05D1BE
:10536000424800EB061010F805800EE0182C07D11B
:1053700006EB46003E4901EBC00010F8058004E052
:105380003C4800EB861010F8058000270DE008F07F
:10539000010018B15846FFF7D9FC02E00698FFF764
:1053A000D5FC4FEA6808781CC7B204EBD471B7EBA0
:1053B000610FECDB681CC5B2A542C5DB3FE00025F0
:1053C0003BE00C2C07D106EB4600274901EB80009F
:1053D00010F8058016E0102C05D1244800EB0610CB
:1053E00010F805800EE0182C07D106EB4600204986
:1053F00001EBC00010F8058004E01E4800EB8610A9
:1054000010F80580002711E01648A0F800B008F059
:10541000010038B10AEB050291B209EB070290B224
:10542000FFF786FC4FEA6808781CC7B204EBD4711A
:10543000B7EB610FE8DB681CC5B2A542C1DB0949C7
:10544000029808800C484088401E83B20A480088B1
:10545000401E82B200210846FFF72CFF07B0BDE8CE
:10546000F08F00008603002070F00008E4F40008CC
:10547000D4FA0008BC030108200A00200149088072
:10548000704700000020006C014908807047000050
:10549000FE1F006C00B502490889FFF7F5FF00BD4B
:1054A000200A0020024A1080921C118070470000E0
:1054B000FE1F006C1CB50121202000F0BFF94FF445
:1054C0004050009001208DF8040000208DF8060067
:1054D00003208DF8050001208DF807006946184863
:1054E000FEF7B6FF4FF48040009000208DF80400D6
:1054F00003208DF8050001208DF80700694610484B
:10550000FEF7A6FF132140F2E73003F05FFBFEF742
:105510001FF800200B4908604FF44860486044F6CB
:1055200020608860C86008468068C96808440549EA
:1055300008610846006949680844024948611CBD81
:10554000001402403807002000BFFEE73EB541F6D8
:10555000FF740121080700F091F9012000F050F9D3
:10556000002000F0D1FB45F25001884231D00120EB
:1055700000F048FA04E0601C84B20A2004F0E6FF60
:10558000412000F01FFA0028F5D00CB901203EBDE3
:105590004FF4807000F052FA012000F049FA7F20A9
:1055A0000190FF20029000200090684600F07AFBF6
:1055B0000023382226210A2000F0A2FC0C23062218
:1055C0001146122000F08AFC45F25001002000F044
:1055D00075FD06F02FFC0020D9E7704770B500215B
:1055E00000230F22C4781CB3174C246804F4E06431
:1055F000C4F5E064C4F30721C1F10404E3B20A4135
:1056000044789C40E1B28478144021430C07210E79
:105610000E4C05786155047804F01F050124AC4058
:1056200005786D11AD0005F1E025C5F8004109E0F0
:10563000047804F01F050124AC40054D067876116E
:1056400045F8264070BD00000CED00E000E400E0ED
:1056500080E100E002490143024A11607047000006
:105660000000FA050CED00E070B504250220114998
:10567000087000BF012000F023F84FF47A6004F0B6
:1056800065FF00F079F804466D1E0CB1002DF1D1D4
:10569000022000F015F80020064908701CB905200A
:1056A0000549086002E00120034908600120034920
:1056B000087070BD09030020240000202401002090
:1056C0007CB506460024092525A103C9CDE90001C2
:1056D00026B1012E07D0022E0FD109E007250020A8
:1056E0008DF803000AE0072501208DF8030005E08E
:1056F000072502208DF8030000E000BF00BFE81E70
:10570000C0B28DF80200A81EC1B26846FCF71AFDAF
:105710000112A81E0DF80010C1B26846FCF712FD78
:10572000C1B2681E0DF80010002415E01DF8041029
:105730000D4804F058F81DF804100C4804F053F814
:105740001DF804100A4804F04EF81DF8041009482A
:1057500004F049F8601CC4B2AC42E7DB7CBD000039
:105760000A00040100000000004C00400014014049
:105770000044004000480040002128E001EB810087
:1057800000EBC1001D4A02EBC000007B4D2812D186
:10579000012001EB810202EBC102184B03EBC202B4
:1057A00082F8660001EB810202EBC10203EBC20248
:1057B00082F8670009E0002001EB810202EBC102E0
:1057C0000E4B03EBC20282F86700481CC1B20429E9
:1057D000D4DB00210DE001EB810000EBC100074AA2
:1057E00002EBC00090F8670008B901207047481C20
:1057F000C1B20429EFDB0020F8E700008405002097
:10580000014908627047000000000E421CB50121EA
:10581000022000F013F84FF47070009000208DF813
:10582000040003208DF8050001208DF8070069466B
:105830000148FEF70DFE1CBD0004024029B1064AD6
:1058400012680243044B1A6004E0034A1268824360
:10585000014B1A60704700003038024029B1064AF7
:1058600012680243044B1A6004E0034A1268824340
:10587000014B1A60704700003838024029B1064ACF
:1058800012680243044B1A6004E0034A1268824320
:10589000014B1A60704700004038024029B1064AA7
:1058A00012680243044B1A6004E0034A1268824300
:1058B000014B1A60704700004438024029B1064A83
:1058C00012680243044B1A6004E0034A12688243E0
:1058D000014B1A607047000024380240F0B50021E7
:1058E00000220024022500260223324F3F6807F0E1
:1058F0000C0121B1042905D0082937D105E02E4F2C
:10590000076036E02D4F076033E02A4F3F1F3F68A6
:10591000C7F38056274F3F1F3F6807F03F036EB124
:10592000264FB7FBF3F7DFF88CC0ACF1040CDCF8C2
:1059300000C0CCF3881C07FB0CF40CE01E4FB7FB37
:10594000F3F7DFF870C0ACF1040CDCF800C0CCF366
:10595000881C07FB0CF4174F3F1F3F68C7F3014734
:105960007F1C7D00B4FBF5F7076002E0124F076073
:1059700000BF00BF0F4F3F6807F0F0010909104F4B
:105980007A5C0768D74047600A4F3F6807F4E051E8
:10599000890A0B4F7A5C4768D7408760054F3F689C
:1059A00007F46041490B064F7A5C4768D740C760EF
:1059B000F0BD0000083802400024F40000127A0014
:1059C000BC03002010B501460022002300204A112C
:1059D000012A02D10A4C236808E0022A03D1084CAC
:1059E0007034236802E0064C7434236801F01F020F
:1059F000012494401C400CB1012000E0002010BDA7
:105A0000003802400021094A11701170012802D0AB
:105A1000042808D103E00121044A117004E00521A3
:105A2000024A117000E000BF00BF704770380240AA
:105A300001490860704700003C0E4742002100F415
:105A40004072B2F5407F08D1094A116821F4F8117B
:105A5000084A02401143064A1160054A683212683A
:105A6000C0F30B031A43024B68331A6070470000FF
:105A700008380240FFFCFF0F10B54FF4807000F0B3
:105A8000A3F8012805D1000200F028F803A0FAF7D6
:105A9000ABFC4FF40030FDF7BBFD10BD414C415253
:105AA0004D2041210D0A0000014600BF080900EB0E
:105AB0008000420001F00F001044C0B27047014660
:105AC000002204E0501CC2B2A1F10A00C1B20A29AE
:105AD000F8DA100741EA10607047000081B241F027
